{
  "transactions": [
    {
      "hash": "0xef421fa53e251be6101f1a2bf3506f7173e14a3ced595a546e396877b9e0ef54",
      "transactionType": "CREATE",
      "contractName": "MockUSDC",
      "contractAddress": "0x29c97a7d15a6eb2c0c6efffc27577991b57b6e67",
      "function": null,
      "arguments": null,
      "transaction": {
        "from": "0xea5a20d8d9eeed3d8275993bdf3bdb4749e7c485",
        "gas": "0x166f5c",
        "value": "0x0",
        "input": "0x6080604052346103e057604080519081016001600160401b038111828210176102f357604090815260098252684d6f636b205553444360b81b602083015280519081016001600160401b038111828210176102f35760405260058152646d5553444360d81b602082015281516001600160401b0381116102f357600354600181811c911680156103d6575b60208210146102d557601f8111610373575b50602092601f821160011461031257928192935f92610307575b50508160011b915f199060031b1c1916176003555b80516001600160401b0381116102f357600454600181811c911680156102e9575b60208210146102d557601f8111610272575b50602091601f8211600114610212579181925f92610207575b50508160011b915f199060031b1c1916176004555b33156101f45760058054336001600160a01b0319821681179092556001600160a01b03167f8be0079c531659141344cd1fd0a4f28419497f9722a3daafe3b4186f6b6457e05f80a360025464e8d4a5100081018091116101e057600255335f525f60205260405f2064e8d4a51000815401905560405164e8d4a5100081525f7fddf252ad1be2c89b69c2b068fc378daa952ba7f163c4a11628f55a4df523b3ef60203393a360405161113f90816103e58239f35b634e487b7160e01b5f52601160045260245ffd5b631e4fbdf760e01b5f525f60045260245ffd5b015190505f80610117565b601f1982169260045f52805f20915f5b85811061025a57508360019510610242575b505050811b0160045561012c565b01515f1960f88460031b161c191690555f8080610234565b91926020600181928685015181550194019201610222565b60045f527f8a35acfbc15ff81a39ae7d344fd709f28e8600b4aa8c65c6b64bfe7fe36bd19b601f830160051c810191602084106102cb575b601f0160051c01905b8181106102c057506100fe565b5f81556001016102b3565b90915081906102aa565b634e487b7160e01b5f52602260045260245ffd5b90607f16906100ec565b634e487b7160e01b5f52604160045260245ffd5b015190505f806100b6565b601f1982169360035f52805f20915f5b86811061035b5750836001959610610343575b505050811b016003556100cb565b01515f1960f88460031b161c191690555f8080610335565b91926020600181928685015181550194019201610322565b60035f527fc2575a0e9e593c00f959f8c92f12db2869c3395a3b0502d05e2516446f71f85b601f830160051c810191602084106103cc575b601f0160051c01905b8181106103c1575061009c565b5f81556001016103b4565b90915081906103ab565b90607f169061008a565b5f80fdfe6080806040526004361015610012575f80fd5b5f3560e01c90816306fdde0314610a9b57508063095ea7b3146109b457806318160ddd1461099757806323b872dd1461095f5780632ff2e9dc1461093f578063313ce5671461092457806340c10f19146108cb57806342966c68146108ae578063685731071461070a5780636dc309f01461069e57806370a082311461065a578063715018a6146105dc57806373b2e80e1461059257806379cc6790146105605780638da5cb5b1461052d57806395d89b41146103b2578063a9059cbb14610381578063dd62ed3e14610313578063de5f72fd146101cc5763f2fde38b146100f8575f80fd5b346101c85760206003193601126101c85773ffffffffffffffffffffffffffffffffffffffff610126610b9c565b61012e610fa5565b16801561019c5773ffffffffffffffffffffffffffffffffffffffff600554827fffffffffffffffffffffffff0000000000000000000000000000000000000000821617600555167f8be0079c531659141344cd1fd0a4f28419497f9722a3daafe3b4186f6b6457e05f80a3005b7f1e4fbdf7000000000000000000000000000000000000000000000000000000005f525f60045260245ffd5b5f80fd5b346101c8575f6003193601126101c857335f52600660205260ff60405f20541661028f57633b9aca00335f52600660205260405f2060017fffffffffffffffffffffffffffffffffffffffffffffffffffffffffffffff008254161790556102348133610ff2565b6040519081527f5d4f415c63cd8a5874d9d291cdd64cec37e5dc236d90d659c958d109d78074b360203392a2005b7f4e487b71000000000000000000000000000000000000000000000000000000005f52601160045260245ffd5b60846040517f08c379a000000000000000000000000000000000000000000000000000000000815260206004820152602560248201527f4d6f636b555344433a20416c726561647920636c61696d65642066726f6d206660448201527f61756365740000000000000000000000000000000000000000000000000000006064820152fd5b346101c85760406003193601126101c85761032c610b9c565b73ffffffffffffffffffffffffffffffffffffffff610349610bbf565b91165f52600160205273ffffffffffffffffffffffffffffffffffffffff60405f2091165f52602052602060405f2054604051908152f35b346101c85760406003193601126101c8576103a761039d610b9c565b6024359033610e83565b602060405160018152f35b346101c8575f6003193601126101c8576040515f600454908160011c60018316928315610523575b6020821084146104f65781855284939081156104b45750600114610458575b5003601f01601f191681019067ffffffffffffffff82118183101761042b5761042782918260405282610b72565b0390f35b7f4e487b71000000000000000000000000000000000000000000000000000000005f52604160045260245ffd5b60045f90815291507f8a35acfbc15ff81a39ae7d344fd709f28e8600b4aa8c65c6b64bfe7fe36bd19b5b8183106104985750508101602001601f196103f9565b6020919350806001915483858801015201910190918392610482565b7fffffffffffffffffffffffffffffffffffffffffffffffffffffffffffffff001660208581019190915291151560051b84019091019150601f1990506103f9565b7f4e487b71000000000000000000000000000000000000000000000000000000005f52602260045260245ffd5b90607f16906103da565b346101c8575f6003193601126101c857602073ffffffffffffffffffffffffffffffffffffffff60055416604051908152f35b346101c85760406003193601126101c85761059061057c610b9c565b6024359061058b823383610d61565b61105f565b005b346101c85760206003193601126101c85773ffffffffffffffffffffffffffffffffffffffff6105c0610b9c565b165f526006602052602060ff60405f2054166040519015158152f35b346101c8575f6003193601126101c8576105f4610fa5565b5f73ffffffffffffffffffffffffffffffffffffffff6005547fffffffffffffffffffffffff00000000000000000000000000000000000000008116600555167f8be0079c531659141344cd1fd0a4f28419497f9722a3daafe3b4186f6b6457e08280a3005b346101c85760206003193601126101c85773ffffffffffffffffffffffffffffffffffffffff610688610b9c565b165f525f602052602060405f2054604051908152f35b346101c85760206003193601126101c85773ffffffffffffffffffffffffffffffffffffffff6106cc610b9c565b6106d4610fa5565b165f52600660205260405f207fffffffffffffffffffffffffffffffffffffffffffffffffffffffffffffff0081541690555f80f35b346101c85760406003193601126101c85760043567ffffffffffffffff81116101c85761073b903690600401610be2565b9060243567ffffffffffffffff81116101c85761075c903690600401610be2565b90610765610fa5565b8184036108505783156107f2575f5b84811061077d57005b806107b373ffffffffffffffffffffffffffffffffffffffff6107ab6107a66001958a8a610d03565b610d40565b161515610c13565b6107c96107c1828686610d03565b351515610c78565b6107ec6107da6107a6838989610d03565b6107e5838787610d03565b3590610ff2565b01610774565b60646040517f08c379a000000000000000000000000000000000000000000000000000000000815260206004820152601660248201527f4d6f636b555344433a20456d70747920617272617973000000000000000000006044820152fd5b60646040517f08c379a000000000000000000000000000000000000000000000000000000000815260206004820152601f60248201527f4d6f636b555344433a204172726179206c656e677468206d69736d61746368006044820152fd5b346101c85760206003193601126101c8576105906004353361105f565b346101c85760406003193601126101c8576105906108e7610b9c565b602435906108f3610fa5565b61091473ffffffffffffffffffffffffffffffffffffffff82161515610c13565b61091f821515610c78565b610ff2565b346101c8575f6003193601126101c857602060405160068152f35b346101c8575f6003193601126101c85760405164e8d4a510008152602090f35b346101c85760606003193601126101c8576103a761097b610b9c565b610983610bbf565b60443591610992833383610d61565b610e83565b346101c8575f6003193601126101c8576020600254604051908152f35b346101c85760406003193601126101c8576109cd610b9c565b602435903315610a6f5773ffffffffffffffffffffffffffffffffffffffff16908115610a4357335f52600160205260405f20825f526020528060405f20556040519081527f8c5be1e5ebec7d5bd14f71427d1e84f3dd0314c0f7b2291e5b200ac8c7c3b92560203392a3602060405160018152f35b7f94280d62000000000000000000000000000000000000000000000000000000005f525f60045260245ffd5b7fe602df05000000000000000000000000000000000000000000000000000000005f525f60045260245ffd5b346101c8575f6003193601126101c8575f600354908160011c60018316928315610b68575b6020821084146104f65781855284939081156104b45750600114610b0c575003601f01601f191681019067ffffffffffffffff82118183101761042b5761042782918260405282610b72565b60035f90815291507fc2575a0e9e593c00f959f8c92f12db2869c3395a3b0502d05e2516446f71f85b5b818310610b4c5750508101602001601f196103f9565b6020919350806001915483858801015201910190918392610b36565b90607f1690610ac0565b601f19601f602060409481855280519182918282880152018686015e5f8582860101520116010190565b6004359073ffffffffffffffffffffffffffffffffffffffff821682036101c857565b6024359073ffffffffffffffffffffffffffffffffffffffff821682036101c857565b9181601f840112156101c85782359167ffffffffffffffff83116101c8576020808501948460051b0101116101c857565b15610c1a57565b60646040517f08c379a000000000000000000000000000000000000000000000000000000000815260206004820152601e60248201527f4d6f636b555344433a206d696e7420746f207a65726f206164647265737300006044820152fd5b15610c7f57565b60846040517f08c379a000000000000000000000000000000000000000000000000000000000815260206004820152602660248201527f4d6f636b555344433a206d696e7420616d6f756e74206d75737420626520706f60448201527f73697469766500000000000000000000000000000000000000000000000000006064820152fd5b9190811015610d135760051b0190565b7f4e487b71000000000000000000000000000000000000000000000000000000005f52603260045260245ffd5b3573ffffffffffffffffffffffffffffffffffffffff811681036101c85790565b73ffffffffffffffffffffffffffffffffffffffff909291921691825f52600160205260405f2073ffffffffffffffffffffffffffffffffffffffff82165f5260205260405f2054927fffffffffffffffffffffffffffffffffffffffffffffffffffffffffffffffff8410610dd8575b50505050565b828410610e39578015610a6f5773ffffffffffffffffffffffffffffffffffffffff821615610a43575f52600160205273ffffffffffffffffffffffffffffffffffffffff60405f2091165f5260205260405f20910390555f808080610dd2565b5073ffffffffffffffffffffffffffffffffffffffff83917ffb8f41b2000000000000000000000000000000000000000000000000000000005f521660045260245260445260645ffd5b73ffffffffffffffffffffffffffffffffffffffff16908115610f795773ffffffffffffffffffffffffffffffffffffffff16918215610f4d57815f525f60205260405f2054818110610f1b57817fddf252ad1be2c89b69c2b068fc378daa952ba7f163c4a11628f55a4df523b3ef92602092855f525f84520360405f2055845f525f825260405f20818154019055604051908152a3565b827fe450d38c000000000000000000000000000000000000000000000000000000005f5260045260245260445260645ffd5b7fec442f05000000000000000000000000000000000000000000000000000000005f525f60045260245ffd5b7f96c6fd1e000000000000000000000000000000000000000000000000000000005f525f60045260245ffd5b73ffffffffffffffffffffffffffffffffffffffff600554163303610fc657565b7f118cdaa7000000000000000000000000000000000000000000000000000000005f523360045260245ffd5b73ffffffffffffffffffffffffffffffffffffffff16908115610f4d57600254908082018092116102625760207fddf252ad1be2c89b69c2b068fc378daa952ba7f163c4a11628f55a4df523b3ef915f9360025584845283825260408420818154019055604051908152a3565b90919073ffffffffffffffffffffffffffffffffffffffff168015610f7957805f525f60205260405f20548381106110d6576020845f94957fddf252ad1be2c89b69c2b068fc378daa952ba7f163c4a11628f55a4df523b3ef938587528684520360408620558060025403600255604051908152a3565b91507fe450d38c000000000000000000000000000000000000000000000000000000005f5260045260245260445260645ffdfea2646970667358221220a844446e24ab6edd552eb06d821a318521d02e31f6747fb6483ec4d43e11952164736f6c634300081e0033",
        "nonce": "0x1e",
        "chainId": "0xaa37dc"
      },
      "additionalContracts": [],
      "isFixedGasLimit": false
    },
    {
      "hash": "0xbed5c39a8977b403070a834f5f0783161a940ae98be46d7466249cdfb74389c3",
      "transactionType": "CALL",
      "contractName": "MockUSDC",
      "contractAddress": "0x29c97a7d15a6eb2c0c6efffc27577991b57b6e67",
      "function": "batchMint(address[],uint256[])",
      "arguments": [
        "[0x3886DAcbd70796443676FC99bC91d04cCcB61Ce4, 0xFB92cD8d7F8ba6B3A56a31c3D690626e3431A0D3, 0xF39ca026377a84DE1ee49cB62bAC4e3aba8c73f7, 0x037115d0179D5259D39BDa543Ab817b1398EDecE]",
        "[50000000000, 50000000000, 10000000000, 10000000000]"
      ],
      "transaction": {
        "from": "0xea5a20d8d9eeed3d8275993bdf3bdb4749e7c485",
        "to": "0x29c97a7d15a6eb2c0c6efffc27577991b57b6e67",
        "gas": "0x2eaee",
        "value": "0x0",
        "input": "0x68573107000000000000000000000000000000000000000000000000000000000000004000000000000000000000000000000000000000000000000000000000000000e000000000000000000000000000000000000000000000000000000000000000040000000000000000000000003886dacbd70796443676fc99bc91d04cccb61ce4000000000000000000000000fb92cd8d7f8ba6b3a56a31c3d690626e3431a0d3000000000000000000000000f39ca026377a84de1ee49cb62bac4e3aba8c73f7000000000000000000000000037115d0179d5259d39bda543ab817b1398edece00000000000000000000000000000000000000000000000000000000000000040000000000000000000000000000000000000000000000000000000ba43b74000000000000000000000000000000000000000000000000000000000ba43b740000000000000000000000000000000000000000000000000000000002540be40000000000000000000000000000000000000000000000000000000002540be400",
        "nonce": "0x1f",
        "chainId": "0xaa37dc"
      },
      "additionalContracts": [],
      "isFixedGasLimit": false
    }
  ],
  "receipts": [
    {
      "status": "0x1",
      "cumulativeGasUsed": "0x11f614",
      "logs": [
        {
          "address": "0x29c97a7d15a6eb2c0c6efffc27577991b57b6e67",
          "topics": [
            "0x8be0079c531659141344cd1fd0a4f28419497f9722a3daafe3b4186f6b6457e0",
            "0x0000000000000000000000000000000000000000000000000000000000000000",
            "0x000000000000000000000000ea5a20d8d9eeed3d8275993bdf3bdb4749e7c485"
          ],
          "data": "0x",
          "blockHash": "0x751a927d0f211d32f34518f4f5593b7d5fc23b3cb974fc759a1cf28b7bb4fff0",
          "blockNumber": "0x20c4495",
          "blockTimestamp": "0x68ef64d6",
          "transactionHash": "0xef421fa53e251be6101f1a2bf3506f7173e14a3ced595a546e396877b9e0ef54",
          "transactionIndex": "0x1",
          "logIndex": "0x0",
          "removed": false
        },
        {
          "address": "0x29c97a7d15a6eb2c0c6efffc27577991b57b6e67",
          "topics": [
            "0xddf252ad1be2c89b69c2b068fc378daa952ba7f163c4a11628f55a4df523b3ef",
            "0x0000000000000000000000000000000000000000000000000000000000000000",
            "0x000000000000000000000000ea5a20d8d9eeed3d8275993bdf3bdb4749e7c485"
          ],
          "data": "0x000000000000000000000000000000000000000000000000000000e8d4a51000",
          "blockHash": "0x751a927d0f211d32f34518f4f5593b7d5fc23b3cb974fc759a1cf28b7bb4fff0",
          "blockNumber": "0x20c4495",
          "blockTimestamp": "0x68ef64d6",
          "transactionHash": "0xef421fa53e251be6101f1a2bf3506f7173e14a3ced595a546e396877b9e0ef54",
          "transactionIndex": "0x1",
          "logIndex": "0x1",
          "removed": false
        }
      ],
      "logsBloom": "0x00000000000000000000000000000000000000000000800000800000000000000000000080000000000000000000000000000000000000000000000000000000000000000000000000000008000000000001000000000000000000000000000000000000020000000008000000000800000000000000000000000010008000400000000000000000000000000000000000000000000000000400000000000000000000000000000000000000000000000000000010000000000000000000000000000002000000000000000000000000000000000000000000000000000020000000000000000000000000000000000000000000000000000000000000000000",
      "type": "0x0",
      "transactionHash": "0xef421fa53e251be6101f1a2bf3506f7173e14a3ced595a546e396877b9e0ef54",
      "transactionIndex": "0x1",
      "blockHash": "0x751a927d0f211d32f34518f4f5593b7d5fc23b3cb974fc759a1cf28b7bb4fff0",
      "blockNumber": "0x20c4495",
      "gasUsed": "0x1141f8",
      "effectiveGasPrice": "0xf433a",
      "from": "0xea5a20d8d9eeed3d8275993bdf3bdb4749e7c485",
      "to": null,
      "contractAddress": "0x29c97a7d15a6eb2c0c6efffc27577991b57b6e67",
      "l1BaseFeeScalar": "0x1db0",
      "l1BlobBaseFee": "0x1",
      "l1BlobBaseFeeScalar": "0xd2730",
      "l1Fee": "0x153b",
      "l1GasPrice": "0xb",
      "l1GasUsed": "0x9a71"
    },
    {
      "status": "0x1",
      "cumulativeGasUsed": "0x13f4cd",
      "logs": [
        {
          "address": "0x29c97a7d15a6eb2c0c6efffc27577991b57b6e67",
          "topics": [
            "0xddf252ad1be2c89b69c2b068fc378daa952ba7f163c4a11628f55a4df523b3ef",
            "0x0000000000000000000000000000000000000000000000000000000000000000",
            "0x0000000000000000000000003886dacbd70796443676fc99bc91d04cccb61ce4"
          ],
          "data": "0x0000000000000000000000000000000000000000000000000000000ba43b7400",
          "blockHash": "0x751a927d0f211d32f34518f4f5593b7d5fc23b3cb974fc759a1cf28b7bb4fff0",
          "blockNumber": "0x20c4495",
          "blockTimestamp": "0x68ef64d6",
          "transactionHash": "0xbed5c39a8977b403070a834f5f0783161a940ae98be46d7466249cdfb74389c3",
          "transactionIndex": "0x2",
          "logIndex": "0x2",
          "removed": false
        },
        {
          "address": "0x29c97a7d15a6eb2c0c6efffc27577991b57b6e67",
          "topics": [
            "0xddf252ad1be2c89b69c2b068fc378daa952ba7f163c4a11628f55a4df523b3ef",
            "0x0000000000000000000000000000000000000000000000000000000000000000",
            "0x000000000000000000000000fb92cd8d7f8ba6b3a56a31c3d690626e3431a0d3"
          ],
          "data": "0x0000000000000000000000000000000000000000000000000000000ba43b7400",
          "blockHash": "0x751a927d0f211d32f34518f4f5593b7d5fc23b3cb974fc759a1cf28b7bb4fff0",
          "blockNumber": "0x20c4495",
          "blockTimestamp": "0x68ef64d6",
          "transactionHash": "0xbed5c39a8977b403070a834f5f0783161a940ae98be46d7466249cdfb74389c3",
          "transactionIndex": "0x2",
          "logIndex": "0x3",
          "removed": false
        },
        {
          "address": "0x29c97a7d15a6eb2c0c6efffc27577991b57b6e67",
          "topics": [
            "0xddf252ad1be2c89b69c2b068fc378daa952ba7f163c4a11628f55a4df523b3ef",
            "0x0000000000000000000000000000000000000000000000000000000000000000",
            "0x000000000000000000000000f39ca026377a84de1ee49cb62bac4e3aba8c73f7"
          ],
          "data": "0x00000000000000000000000000000000000000000000000000000002540be400",
          "blockHash": "0x751a927d0f211d32f34518f4f5593b7d5fc23b3cb974fc759a1cf28b7bb4fff0",
          "blockNumber": "0x20c4495",
          "blockTimestamp": "0x68ef64d6",
          "transactionHash": "0xbed5c39a8977b403070a834f5f0783161a940ae98be46d7466249cdfb74389c3",
          "transactionIndex": "0x2",
          "logIndex": "0x4",
          "removed": false
        },
        {
          "address": "0x29c97a7d15a6eb2c0c6efffc27577991b57b6e67",
          "topics": [
            "0xddf252ad1be2c89b69c2b068fc378daa952ba7f163c4a11628f55a4df523b3ef",
            "0x0000000000000000000000000000000000000000000000000000000000000000",
            "0x000000000000000000000000037115d0179d5259d39bda543ab817b1398edece"
          ],
          "data": "0x00000000000000000000000000000000000000000000000000000002540be400",
          "blockHash": "0x751a927d0f211d32f34518f4f5593b7d5fc23b3cb974fc759a1cf28b7bb4fff0",
          "blockNumber": "0x20c4495",
          "blockTimestamp": "0x68ef64d6",
          "transactionHash": "0xbed5c39a8977b403070a834f5f0783161a940ae98be46d7466249cdfb74389c3",
          "transactionIndex": "0x2",
          "logIndex": "0x5",
          "removed": false
        }
      ],
      "logsBloom": "0x00000000000000000000000000000000000000000000800000000000000000000000000000000000000000000040000000000000000000000000000000000000008000000000000000000008000000000000000000000000000000000000000000000000020000400008000000000800000000080000000000000010000000000000000000000000040000000000000000000000000000000000000000000001000000000000000000000000400000000000020010000000000000000000000000000002000000000000000000000000000000000000000100000000008020000000000000000000800100000000000000000000000000000000000000000000",
      "type": "0x0",
      "transactionHash": "0xbed5c39a8977b403070a834f5f0783161a940ae98be46d7466249cdfb74389c3",
      "transactionIndex": "0x2",
      "blockHash": "0x751a927d0f211d32f34518f4f5593b7d5fc23b3cb974fc759a1cf28b7bb4fff0",
      "blockNumber": "0x20c4495",
      "gasUsed": "0x1feb9",
      "effectiveGasPrice": "0xf433a",
      "from": "0xea5a20d8d9eeed3d8275993bdf3bdb4749e7c485",
      "to": "0x29c97a7d15a6eb2c0c6efffc27577991b57b6e67",
      "contractAddress": null,
      "l1BaseFeeScalar": "0x1db0",
      "l1BlobBaseFee": "0x1",
      "l1BlobBaseFeeScalar": "0xd2730",
      "l1Fee": "0x153b",
      "l1GasPrice": "0xb",
      "l1GasUsed": "0xb74"
    }
  ],
  "libraries": [],
  "pending": [],
  "returns": {},
  "timestamp": 1760519380305,
  "chain": 11155420,
  "commit": "1432062"
}