{
  "transactions": [
    {
      "hash": "0x13824cdc45c6ccde25ad288fefcfe2dc38d311d8fdaf53a55c3eed5c781a6306",
      "transactionType": "CALL",
      "contractName": "StudyRegistryImpl",
      "contractAddress": "0x1a4216bd4cd94096aac25cb0299bf56a38054dd4",
      "function": "publishStudy(string,string,string)",
      "arguments": [
        "North America",
        "250 USDC per participant + free medical monitoring",
        "ipfs://QmDiabetesStudyCriteria"
      ],
      "transaction": {
        "from": "0xea5a20d8d9eeed3d8275993bdf3bdb4749e7c485",
        "to": "0x1a4216bd4cd94096aac25cb0299bf56a38054dd4",
        "gas": "0x3fbbe",
        "value": "0x0",
        "input": "0x5d74011d000000000000000000000000000000000000000000000000000000000000006000000000000000000000000000000000000000000000000000000000000000a00000000000000000000000000000000000000000000000000000000000000100000000000000000000000000000000000000000000000000000000000000000d4e6f72746820416d6572696361000000000000000000000000000000000000000000000000000000000000000000000000000000000000000000000000000032323530205553444320706572207061727469636970616e74202b2066726565206d65646963616c206d6f6e69746f72696e670000000000000000000000000000000000000000000000000000000000000000000000000000000000000000001e697066733a2f2f516d4469616265746573537475647943726974657269610000",
        "nonce": "0x18",
        "chainId": "0xaa37dc"
      },
      "additionalContracts": [],
      "isFixedGasLimit": false
    },
    {
      "hash": "0xd738f37ca5eddf2d4595bed5dd2955da236dfa3fa3f3a0289de8676207fb0ce4",
      "transactionType": "CALL",
      "contractName": "StudyRegistryImpl",
      "contractAddress": "0x1a4216bd4cd94096aac25cb0299bf56a38054dd4",
      "function": "setStudyCriteria(uint256,uint32,uint32,uint256)",
      "arguments": [
        "1",
        "35",
        "65",
        "64940839218048244630388246593728284635654706306498275753413224469212215394946"
      ],
      "transaction": {
        "from": "0xea5a20d8d9eeed3d8275993bdf3bdb4749e7c485",
        "to": "0x1a4216bd4cd94096aac25cb0299bf56a38054dd4",
        "gas": "0x20310",
        "value": "0x0",
        "input": "0xa54c71380000000000000000000000000000000000000000000000000000000000000001000000000000000000000000000000000000000000000000000000000000002300000000000000000000000000000000000000000000000000000000000000418f9336629578ce8f807363fc2378974be733fe04d786bd4c0fdc441bcd104282",
        "nonce": "0x19",
        "chainId": "0xaa37dc"
      },
      "additionalContracts": [],
      "isFixedGasLimit": false
    },
    {
      "hash": "0x331ceaf6326ddea88ac398632892e870fe69cb165d6b862cb31a476f634b3e8d",
      "transactionType": "CALL",
      "contractName": "StudyRegistryImpl",
      "contractAddress": "0x1a4216bd4cd94096aac25cb0299bf56a38054dd4",
      "function": "publishStudy(string,string,string)",
      "arguments": [
        "North America",
        "300 USDC per participant + free blood pressure monitoring",
        "ipfs://QmHypertensionStudyCriteria"
      ],
      "transaction": {
        "from": "0xea5a20d8d9eeed3d8275993bdf3bdb4749e7c485",
        "to": "0x1a4216bd4cd94096aac25cb0299bf56a38054dd4",
        "gas": "0x4ecce",
        "value": "0x0",
        "input": "0x5d74011d000000000000000000000000000000000000000000000000000000000000006000000000000000000000000000000000000000000000000000000000000000a00000000000000000000000000000000000000000000000000000000000000100000000000000000000000000000000000000000000000000000000000000000d4e6f72746820416d6572696361000000000000000000000000000000000000000000000000000000000000000000000000000000000000000000000000000039333030205553444320706572207061727469636970616e74202b206672656520626c6f6f64207072657373757265206d6f6e69746f72696e67000000000000000000000000000000000000000000000000000000000000000000000000000022697066733a2f2f516d487970657274656e73696f6e53747564794372697465726961000000000000000000000000000000000000000000000000000000000000",
        "nonce": "0x1a",
        "chainId": "0xaa37dc"
      },
      "additionalContracts": [],
      "isFixedGasLimit": false
    },
    {
      "hash": "0xef74b36fb75723e6fccb74411e450f1e35ae3fb54dfaa70e2cb814487fdeaa9f",
      "transactionType": "CALL",
      "contractName": "StudyRegistryImpl",
      "contractAddress": "0x1a4216bd4cd94096aac25cb0299bf56a38054dd4",
      "function": "setStudyCriteria(uint256,uint32,uint32,uint256)",
      "arguments": [
        "2",
        "40",
        "75",
        "22648545765284715042562731858303924932875314504346582726523333015403827245251"
      ],
      "transaction": {
        "from": "0xea5a20d8d9eeed3d8275993bdf3bdb4749e7c485",
        "to": "0x1a4216bd4cd94096aac25cb0299bf56a38054dd4",
        "gas": "0x20310",
        "value": "0x0",
        "input": "0xa54c713800000000000000000000000000000000000000000000000000000000000000020000000000000000000000000000000000000000000000000000000000000028000000000000000000000000000000000000000000000000000000000000004b32129f649133c4886cd678f5128b43652cd85abd57287eaf1aa0579abae730c3",
        "nonce": "0x1b",
        "chainId": "0xaa37dc"
      },
      "additionalContracts": [],
      "isFixedGasLimit": false
    },
    {
      "hash": "0x0db34c344a12318dbda3f746b8dd3378eabc1f97ff24d04767800586767a813f",
      "transactionType": "CALL",
      "contractName": "StudyRegistryImpl",
      "contractAddress": "0x1a4216bd4cd94096aac25cb0299bf56a38054dd4",
      "function": "publishStudy(string,string,string)",
      "arguments": [
        "North America",
        "150 USDC per participant + health monitoring",
        "ipfs://QmWellnessStudyCriteria"
      ],
      "transaction": {
        "from": "0xea5a20d8d9eeed3d8275993bdf3bdb4749e7c485",
        "to": "0x1a4216bd4cd94096aac25cb0299bf56a38054dd4",
        "gas": "0x3fb5a",
        "value": "0x0",
        "input": "0x5d74011d000000000000000000000000000000000000000000000000000000000000006000000000000000000000000000000000000000000000000000000000000000a00000000000000000000000000000000000000000000000000000000000000100000000000000000000000000000000000000000000000000000000000000000d4e6f72746820416d657269636100000000000000000000000000000000000000000000000000000000000000000000000000000000000000000000000000002c313530205553444320706572207061727469636970616e74202b206865616c7468206d6f6e69746f72696e670000000000000000000000000000000000000000000000000000000000000000000000000000000000000000000000000000001e697066733a2f2f516d57656c6c6e657373537475647943726974657269610000",
        "nonce": "0x1c",
        "chainId": "0xaa37dc"
      },
      "additionalContracts": [],
      "isFixedGasLimit": false
    },
    {
      "hash": "0xef4337fc5a817a6b0c972fdd1e7e31b1f71f4e037093309cbea21b8c732f7a73",
      "transactionType": "CALL",
      "contractName": "StudyRegistryImpl",
      "contractAddress": "0x1a4216bd4cd94096aac25cb0299bf56a38054dd4",
      "function": "setStudyCriteria(uint256,uint32,uint32,uint256)",
      "arguments": [
        "3",
        "21",
        "60",
        "19377285505037829544011398533356802929718088861166747213364018933099790343912"
      ],
      "transaction": {
        "from": "0xea5a20d8d9eeed3d8275993bdf3bdb4749e7c485",
        "to": "0x1a4216bd4cd94096aac25cb0299bf56a38054dd4",
        "gas": "0x20310",
        "value": "0x0",
        "input": "0xa54c713800000000000000000000000000000000000000000000000000000000000000030000000000000000000000000000000000000000000000000000000000000015000000000000000000000000000000000000000000000000000000000000003c2ad727a9ca041e3e55907808e989234e59286d03b18367a16f52072e87d01ee8",
        "nonce": "0x1d",
        "chainId": "0xaa37dc"
      },
      "additionalContracts": [],
      "isFixedGasLimit": false
    }
  ],
  "receipts": [
    {
      "status": "0x1",
      "cumulativeGasUsed": "0x39663",
      "logs": [
        {
          "address": "0x1a4216bd4cd94096aac25cb0299bf56a38054dd4",
          "topics": [
            "0x26d5eb83a1253cad53645bb8a291f33250bdb44091297ce56a049f9af09c84f7",
            "0x0000000000000000000000000000000000000000000000000000000000000001",
            "0x000000000000000000000000ea5a20d8d9eeed3d8275993bdf3bdb4749e7c485"
          ],
          "data": "0x0000000000000000000000000000000000000000000000000000000000000020000000000000000000000000000000000000000000000000000000000000000d4e6f72746820416d657269636100000000000000000000000000000000000000",
          "blockHash": "0x6b6e6d786a9e8fb7a13af888273dc020f422e39d3e9fc4a7293a606611f3bf94",
          "blockNumber": "0x20c446e",
          "blockTimestamp": "0x68ef6488",
          "transactionHash": "0x13824cdc45c6ccde25ad288fefcfe2dc38d311d8fdaf53a55c3eed5c781a6306",
          "transactionIndex": "0x1",
          "logIndex": "0x0",
          "removed": false
        }
      ],
      "logsBloom": "0x00000000000000000000000000000000000000000000000000000000000000000000001080000000000000000010000000000000000000000000000000040000000000000000000000000000000000000000000000040000000000000020000000000000000000000000000000000000000000000000000000000000008000000000000000000000000000000000000000000000000000000400000000000000000000000000000000000000000000000040000000000000000000000000000000000000000000000000000000000000000000000000000000000000000040000000400000000000000008000000000000000000000000000000000000000000",
      "type": "0x0",
      "transactionHash": "0x13824cdc45c6ccde25ad288fefcfe2dc38d311d8fdaf53a55c3eed5c781a6306",
      "transactionIndex": "0x1",
      "blockHash": "0x6b6e6d786a9e8fb7a13af888273dc020f422e39d3e9fc4a7293a606611f3bf94",
      "blockNumber": "0x20c446e",
      "gasUsed": "0x2e247",
      "effectiveGasPrice": "0xf433a",
      "from": "0xea5a20d8d9eeed3d8275993bdf3bdb4749e7c485",
      "to": "0x1a4216bd4cd94096aac25cb0299bf56a38054dd4",
      "contractAddress": null,
      "l1BaseFeeScalar": "0x1db0",
      "l1BlobBaseFee": "0x1",
      "l1BlobBaseFeeScalar": "0xd2730",
      "l1Fee": "0x16c",
      "l1GasPrice": "0xb",
      "l1GasUsed": "0xa5b"
    },
    {
      "status": "0x1",
      "cumulativeGasUsed": "0x50b49",
      "logs": [
        {
          "address": "0x1a4216bd4cd94096aac25cb0299bf56a38054dd4",
          "topics": [
            "0x68b1b1c423415f33d49e8a1a76eb2dae8df788a325488951516f374b8ff6dce9",
            "0x0000000000000000000000000000000000000000000000000000000000000001"
          ],
          "data": "0x000000000000000000000000000000000000000000000000000000000000002300000000000000000000000000000000000000000000000000000000000000418f9336629578ce8f807363fc2378974be733fe04d786bd4c0fdc441bcd104282",
          "blockHash": "0x6b6e6d786a9e8fb7a13af888273dc020f422e39d3e9fc4a7293a606611f3bf94",
          "blockNumber": "0x20c446e",
          "blockTimestamp": "0x68ef6488",
          "transactionHash": "0xd738f37ca5eddf2d4595bed5dd2955da236dfa3fa3f3a0289de8676207fb0ce4",
          "transactionIndex": "0x2",
          "logIndex": "0x1",
          "removed": false
        }
      ],
      "logsBloom": "0x00000000000000000000000000000000000000000000000000000000000000000000000000000000000000000010000000000000000000000000000000040000000000000000000000000000000000000000000000040000000000000000000000000000000000000000000000000020000000000000000000000000000000000000000800000000000000000000000000000000000000000000000000000000000001000000000000000000000000000040000000000000000000000000000000000000000000000000000000000000000000000000000000000000000040000000400000000000000000000000000000000000000000000000000000000000",
      "type": "0x0",
      "transactionHash": "0xd738f37ca5eddf2d4595bed5dd2955da236dfa3fa3f3a0289de8676207fb0ce4",
      "transactionIndex": "0x2",
      "blockHash": "0x6b6e6d786a9e8fb7a13af888273dc020f422e39d3e9fc4a7293a606611f3bf94",
      "blockNumber": "0x20c446e",
      "gasUsed": "0x174e6",
      "effectiveGasPrice": "0xf433a",
      "from": "0xea5a20d8d9eeed3d8275993bdf3bdb4749e7c485",
      "to": "0x1a4216bd4cd94096aac25cb0299bf56a38054dd4",
      "contractAddress": null,
      "l1BaseFeeScalar": "0x1db0",
      "l1BlobBaseFee": "0x1",
      "l1BlobBaseFeeScalar": "0xd2730",
      "l1Fee": "0xdb",
      "l1GasPrice": "0xb",
      "l1GasUsed": "0x640"
    },
    {
      "status": "0x1",
      "cumulativeGasUsed": "0x89c17",
      "logs": [
        {
          "address": "0x1a4216bd4cd94096aac25cb0299bf56a38054dd4",
          "topics": [
            "0x26d5eb83a1253cad53645bb8a291f33250bdb44091297ce56a049f9af09c84f7",
            "0x0000000000000000000000000000000000000000000000000000000000000002",
            "0x000000000000000000000000ea5a20d8d9eeed3d8275993bdf3bdb4749e7c485"
          ],
          "data": "0x0000000000000000000000000000000000000000000000000000000000000020000000000000000000000000000000000000000000000000000000000000000d4e6f72746820416d657269636100000000000000000000000000000000000000",
          "blockHash": "0x6b6e6d786a9e8fb7a13af888273dc020f422e39d3e9fc4a7293a606611f3bf94",
          "blockNumber": "0x20c446e",
          "blockTimestamp": "0x68ef6488",
          "transactionHash": "0x331ceaf6326ddea88ac398632892e870fe69cb165d6b862cb31a476f634b3e8d",
          "transactionIndex": "0x3",
          "logIndex": "0x2",
          "removed": false
        }
      ],
      "logsBloom": "0x04000000000000000000000000000000000000000000000000000000000000000000001080000000000000000010000000000000000000000000000000000000000000000000000000000000000000000000000000000000000000000020000000000000000000000000000000000000000000000000000000000000008000000000000000000000000000000000000000000000000000000400000000000000000000000000000000000100000000000040000000000000000000000000000000000000000000000000000000000000000000000000000000000000000000000000400000000000000008000000000000000000008000000000000000000000",
      "type": "0x0",
      "transactionHash": "0x331ceaf6326ddea88ac398632892e870fe69cb165d6b862cb31a476f634b3e8d",
      "transactionIndex": "0x3",
      "blockHash": "0x6b6e6d786a9e8fb7a13af888273dc020f422e39d3e9fc4a7293a606611f3bf94",
      "blockNumber": "0x20c446e",
      "gasUsed": "0x390ce",
      "effectiveGasPrice": "0xf433a",
      "from": "0xea5a20d8d9eeed3d8275993bdf3bdb4749e7c485",
      "to": "0x1a4216bd4cd94096aac25cb0299bf56a38054dd4",
      "contractAddress": null,
      "l1BaseFeeScalar": "0x1db0",
      "l1BlobBaseFee": "0x1",
      "l1BlobBaseFeeScalar": "0xd2730",
      "l1Fee": "0x182",
      "l1GasPrice": "0xb",
      "l1GasUsed": "0xafb"
    },
    {
      "status": "0x1",
      "cumulativeGasUsed": "0xa10fd",
      "logs": [
        {
          "address": "0x1a4216bd4cd94096aac25cb0299bf56a38054dd4",
          "topics": [
            "0x68b1b1c423415f33d49e8a1a76eb2dae8df788a325488951516f374b8ff6dce9",
            "0x0000000000000000000000000000000000000000000000000000000000000002"
          ],
          "data": "0x0000000000000000000000000000000000000000000000000000000000000028000000000000000000000000000000000000000000000000000000000000004b32129f649133c4886cd678f5128b43652cd85abd57287eaf1aa0579abae730c3",
          "blockHash": "0x6b6e6d786a9e8fb7a13af888273dc020f422e39d3e9fc4a7293a606611f3bf94",
          "blockNumber": "0x20c446e",
          "blockTimestamp": "0x68ef6488",
          "transactionHash": "0xef74b36fb75723e6fccb74411e450f1e35ae3fb54dfaa70e2cb814487fdeaa9f",
          "transactionIndex": "0x4",
          "logIndex": "0x3",
          "removed": false
        }
      ],
      "logsBloom": "0x04000000000000000000000000000000000000000000000000000000000000000000000000000000000000000010000000000000000000000000000000000000000000000000000000000000000000000000000000000000000000000000000000000000000000000000000000000020000000000000000000000000000000000000000800000000000000000000000000000000000000000000000000000000000001000000000000000100000000000040000000000000000000000000000000000000000000000000000000000000000000000000000000000000000000000000400000000000000000000000000000000000008000000000000000000000",
      "type": "0x0",
      "transactionHash": "0xef74b36fb75723e6fccb74411e450f1e35ae3fb54dfaa70e2cb814487fdeaa9f",
      "transactionIndex": "0x4",
      "blockHash": "0x6b6e6d786a9e8fb7a13af888273dc020f422e39d3e9fc4a7293a606611f3bf94",
      "blockNumber": "0x20c446e",
      "gasUsed": "0x174e6",
      "effectiveGasPrice": "0xf433a",
      "from": "0xea5a20d8d9eeed3d8275993bdf3bdb4749e7c485",
      "to": "0x1a4216bd4cd94096aac25cb0299bf56a38054dd4",
      "contractAddress": null,
      "l1BaseFeeScalar": "0x1db0",
      "l1BlobBaseFee": "0x1",
      "l1BlobBaseFeeScalar": "0xd2730",
      "l1Fee": "0xdb",
      "l1GasPrice": "0xb",
      "l1GasUsed": "0x640"
    },
    {
      "status": "0x1",
      "cumulativeGasUsed": "0xcf2fc",
      "logs": [
        {
          "address": "0x1a4216bd4cd94096aac25cb0299bf56a38054dd4",
          "topics": [
            "0x26d5eb83a1253cad53645bb8a291f33250bdb44091297ce56a049f9af09c84f7",
            "0x0000000000000000000000000000000000000000000000000000000000000003",
            "0x000000000000000000000000ea5a20d8d9eeed3d8275993bdf3bdb4749e7c485"
          ],
          "data": "0x0000000000000000000000000000000000000000000000000000000000000020000000000000000000000000000000000000000000000000000000000000000d4e6f72746820416d657269636100000000000000000000000000000000000000",
          "blockHash": "0x6b6e6d786a9e8fb7a13af888273dc020f422e39d3e9fc4a7293a606611f3bf94",
          "blockNumber": "0x20c446e",
          "blockTimestamp": "0x68ef6488",
          "transactionHash": "0x0db34c344a12318dbda3f746b8dd3378eabc1f97ff24d04767800586767a813f",
          "transactionIndex": "0x5",
          "logIndex": "0x4",
          "removed": false
        }
      ],
      "logsBloom": "0x00000000000000000000000000000000000000000000000000000000000000000000001080000000000000000010000000000000020000000000000000000000000000000000000000000000000000000000000000000000000000000020000000000000000000000000000000000000000000000000000000000000008000000000000000000000000000000000000000000000000000000400000000000000000000000000000000000000000000000040000000800000000000000000400000000000000000000000000000000000000000000000000000000000000000000000400000000000000008000000000000000000000000000000000000000000",
      "type": "0x0",
      "transactionHash": "0x0db34c344a12318dbda3f746b8dd3378eabc1f97ff24d04767800586767a813f",
      "transactionIndex": "0x5",
      "blockHash": "0x6b6e6d786a9e8fb7a13af888273dc020f422e39d3e9fc4a7293a606611f3bf94",
      "blockNumber": "0x20c446e",
      "gasUsed": "0x2e1ff",
      "effectiveGasPrice": "0xf433a",
      "from": "0xea5a20d8d9eeed3d8275993bdf3bdb4749e7c485",
      "to": "0x1a4216bd4cd94096aac25cb0299bf56a38054dd4",
      "contractAddress": null,
      "l1BaseFeeScalar": "0x1db0",
      "l1BlobBaseFee": "0x1",
      "l1BlobBaseFeeScalar": "0xd2730",
      "l1Fee": "0x163",
      "l1GasPrice": "0xb",
      "l1GasUsed": "0xa18"
    },
    {
      "status": "0x1",
      "cumulativeGasUsed": "0xe67e2",
      "logs": [
        {
          "address": "0x1a4216bd4cd94096aac25cb0299bf56a38054dd4",
          "topics": [
            "0x68b1b1c423415f33d49e8a1a76eb2dae8df788a325488951516f374b8ff6dce9",
            "0x0000000000000000000000000000000000000000000000000000000000000003"
          ],
          "data": "0x0000000000000000000000000000000000000000000000000000000000000015000000000000000000000000000000000000000000000000000000000000003c2ad727a9ca041e3e55907808e989234e59286d03b18367a16f52072e87d01ee8",
          "blockHash": "0x6b6e6d786a9e8fb7a13af888273dc020f422e39d3e9fc4a7293a606611f3bf94",
          "blockNumber": "0x20c446e",
          "blockTimestamp": "0x68ef6488",
          "transactionHash": "0xef4337fc5a817a6b0c972fdd1e7e31b1f71f4e037093309cbea21b8c732f7a73",
          "transactionIndex": "0x6",
          "logIndex": "0x5",
          "removed": false
        }
      ],
      "logsBloom": "0x00000000000000000000000000000000000000000000000000000000000000000000000000000000000000000010000000000000020000000000000000000000000000000000000000000000000000000000000000000000000000000000000000000000000000000000000000000020000000000000000000000000000000000000000800000000000000000000000000000000000000000000000000000000000001000000000000000000000000000040000000800000000000000000400000000000000000000000000000000000000000000000000000000000000000000000400000000000000000000000000000000000000000000000000000000000",
      "type": "0x0",
      "transactionHash": "0xef4337fc5a817a6b0c972fdd1e7e31b1f71f4e037093309cbea21b8c732f7a73",
      "transactionIndex": "0x6",
      "blockHash": "0x6b6e6d786a9e8fb7a13af888273dc020f422e39d3e9fc4a7293a606611f3bf94",
      "blockNumber": "0x20c446e",
      "gasUsed": "0x174e6",
      "effectiveGasPrice": "0xf433a",
      "from": "0xea5a20d8d9eeed3d8275993bdf3bdb4749e7c485",
      "to": "0x1a4216bd4cd94096aac25cb0299bf56a38054dd4",
      "contractAddress": null,
      "l1BaseFeeScalar": "0x1db0",
      "l1BlobBaseFee": "0x1",
      "l1BlobBaseFeeScalar": "0xd2730",
      "l1Fee": "0xdb",
      "l1GasPrice": "0xb",
      "l1GasUsed": "0x640"
    }
  ],
  "libraries": [],
  "pending": [],
  "returns": {},
  "timestamp": 1760519304195,
  "chain": 11155420,
  "commit": "1432062"
}